:0802DE001E1203067FF47E01ED
:1002E600E4FDFCC3ED9FEC9E5015E4FBFA0BBB004E
:1002F600010AEB64FA4A70F50DBD00010C80E42298
:10033100AD071FED600BE4FEEEC3940A50F20E8090
:02034100F722A1
:1001DA008F20C287C284A2079285C286D286A206CF
:1001EA009285C286D286A2059285C286D286A2044A
:1001FA009285C286D286A2039285C286D286A2023E
:10020A009285C286D286A2019285C286D286A20031
:09021A009285C286D286D28722A9
:100223008F20C287D284A2079285C286D286A20675
:100233009285C286D286A2059285C286D286A20400
:100243009285C286D286A2039285C286D286A202F4
:100253009285C286D286A2019285C286D286A200E8
:090263009285C286D286D2872260
:0E034300AD07AC06AF04120223AF0502022381
:10026C008F20C287C284A2079285C286D286A2063C
:10027C009285C286D286A2059285C286D286A204B7
:10028C009285C286D286A2039285C286D286A202AB
:10029C009285C286D286A2019285C286D286A2009F
:0902AC009285C286D286D2872217
:0E01830012026C7F011201917F2C1201910F6C
:100191008F20C287D284A2079285C286D286A20608
:1001A1009285C286D286A2059285C286D286A20493
:1001B1009285C286D286A2039285C286D286A20287
:1001C1009285C286D286A2019285C286D286A2007B
:0901D1009285C286D286D28722F3
:10031E00D2837F647E001202E6C2831202E6D2838B
:03032E000202E6E2
:1000030012031E7F1112026C7F781203317FB1122B
:1000130001837FB21201837FB31201831201867FB2
:10002300B412026C7F031201917FB612026C7FB48B
:100033001201917FF01201917FC012026C7FA21214
:1000430001917F021201917F841201917FC11202FB
:100053006C7FC51201917FC212026C7F0A1201915B
:10006300E4FF1201917FC312026C7F8A1201917F18
:100073002A1201917FC412026C7F8A1201917FEED2
:100083001201917FC512026C7F0A1201917F361211
:10009300026C7FC81201917FE012026C7F02120191
:1000A300917F1C1201917F071201917F121201911E
:1000B3007F371201917F321201917F291201917FC3
:1000C3002D1201917F291201917F251201917F2B1E
:1000D3001201917F39120191FF12018D7F031201E9
:1000E300917F101201917FE112026C7F0312019143
:1000F3007F1D1201917F071201911F1201917F2E23
:100103001201917F2C1201917F291201917F2D12EF
:10011300018D1201917F371201917F3F120191FFEF
:100123001201911201917F021201917F101201912C
:100133007F2A12026CFF1201911201911201917F29
:100143007F1201917F2B12026CFF12019112019118
:100153001201917F9F1201917FF012026C7F0112B5
:1001630001917FF612026CFF1201917F3A12026C29
:100173007F051201917F2912026C7F78FE0202E64D
:100306008F828E83E4FAE4FBAF82AE831203430B43
:08031600BB80F50ABAA0EF223A
:1002B5001200037F2C12026C74FFFFFE1202DFE4B2
:1002C500FF1202DE7F007EF81202DF7FE07E07125A
:0902D50002DF7F1F1202DE80DA55
:03000000020351A7
:0C035100787FE4F6D8FD7581200202B52B
:00000001FF
